:04000000FEEFFFF020
:102600000025643A206661696C20617420253034AD
:10261000580A007C2530356C58202530325820254A
:10262000632000204F55543A202530327800616CE9
:102630006C206F6B0A002525253034582000204976
:102640004E3E00737320002D3E0A002558003B00CB
:012650000089
:1026520011C5F6F412C5F7F4000EF86E0800F5C4C1
:1026620055F5114A122A5550D8A43AEF13F03CEF0F
:1026720013F03EEF13F02BEF17F0250E5518D8B4D8
:1026820045EF13F047EF13F054EF13F00EC503F5C7
:102692000FC504F510C505F555C506F5076A2BECFF
:1026A2001BF029EF13F0000E4E6E000E4D6E4DC55D
:1026B2004BF54EC54CF5200E3C6E4F68506811C567
:1026C200F6F412C5F7F4000EF86E0800F5C455F5DD
:1026D200114A122A300E5518D8A472EF13F074EF73
:1026E20013F083EF13F0300E3C6E11C5F6F412C5F1
:1026F200F7F4000EF86E0800F5C455F5114A122AD7
:1027020092EF13F02D0E5518D8A48AEF13F08CEF28
:1027120013F092EF13F0000E4C6E020E4B6E76EF3A
:1027220013F02A0E5518D8A499EF13F09BEF13F06B
:10273200F2EF13F013C5D9F414C5DAF4DFC415F5BA
:10274200020EDE26DFC416F5000EDD2215C5D9F411
:1027520016C5DAF4DEC443F5DDC444F544BEB6EF73
:1027620013F0B4EF13F0C2EF13F043500008436EBE
:102772004450D8A0E82A0008446E000E4C6E020EA7
:102782004B6E43C54DF544C54EF511C5F6F412C561
:10279200F7F4000EF86E0800F5C455F5114A122A36
:1027A20002EF14F04DC501F54EC502F5000E046EA0
:1027B2000A0E036E3EEC1DF055500126000E022259
:1027C200D00E01244D6EFF0E02204E6E11C5F6F49E
:1027D20012C5F7F4000EF86E0800F5C455F5114A5B
:1027E200122A2F0E5564F8EF13F0FAEF13F002EFEE
:1027F20014F0390E556400EF14F002EF14F0D3EF29
:1028020013F02E0E5518D8A409EF14F00BEF14F0A4
:1028120077EF14F011C5F6F412C5F7F4000EF86E56
:102822000800F5C455F5114A122A2A0E5518D8A4E3
:102832001DEF14F01FEF14F040EF14F013C5D9F49C
:1028420014C5DAF4DFC415F5020EDE26DFC416F570
:10285200000EDD2215C5D9F416C5DAF4DEC44FF533
:10286200DDC450F511C5F6F412C5F7F4000EF86E8A
:102872000800F5C455F5114A122A77EF14F0000E3C
:10288200506E000E4F6E65EF14F04FC501F550C546
:1028920002F5000E046E0A0E036E3EEC1DF055505A
:1028A2000126000E0222D00E01244F6EFF0E0220DE
:1028B200506E11C5F6F412C5F7F4000EF86E08005A
:1028C200F5C455F5114A122A2F0E55646BEF14F018
:1028D2006DEF14F077EF14F0390E556473EF14F0C6
:1028E20075EF14F046EF14F077EF14F06C0E5518F4
:1028F200D8A47EEF14F080EF14F08CEF14F04B8428
:1029020011C5F6F412C5F7F4000EF86E0800F5C40E
:1029120055F5114A122A5550D8A492EF14F094EFAB
:1029220014F09BEF15F02BEF17F0000E3E6E020E27
:102932003D6EC8EF15F0000E3E6E080E3D6EC8EFFC
:1029420015F0000E3E6E0A0E3D6EC8EF15F0000E39
:102952003E6E100E3D6EC8EF15F00EC503F50FC5A5
:1029620004F510C505F513C5D9F414C5DAF4DFC4AE
:1029720015F5020EDE26DFC416F5000EDD2215C5A2
:10298200D9F416C5DAF4DF50176E1750066E076ACF
:102992002BEC1BF029EF13F013C5D9F414C5DAF4AC
:1029A200DFC415F5020EDE26DFC416F5000EDD22A9
:1029B20015C5D9F416C5DAF4DEC449F5DDC44AF505
:1029C20049504A10D8A4E8EF14F0EAEF14F0EEEF01
:1029D20014F04A0E496E260E4A6E49C501F54AC5E3
:1029E20002F5E1EC1CF001C551F502C552F550BEED
:1029F200FDEF14F0FFEF14F021EF15F051504F5C92
:102A02005050800A156E5250800A1558D8B00CEFFB
:102A120015F00EEF15F021EF15F04FC551F550C529
:102A220052F521EF15F00EC503F50FC504F510C5DB
:102A320005F53CC506F5076A2BEC1BF0514A522AF4
:102A42004BB226EF15F028EF15F054EF15F04D506C
:102A5200515C4E505258D8A031EF15F033EF15F0BB
:102A620014EF15F054EF15F00EC503F50FC504F57C
:102A720010C505F549C5F6F44AC5F7F4000EF86E1F
:102A8200250EF76403D00800F55005D0F6C4E9F42A
:102A9200F7C4EAF4EF50156E1550066E076A2BEC78
:102AA2001BF0494A4A2A49C5F6F44AC5F7F4000E12
:102AB200F86E250EF76403D00800F55005D0F6C471
:102AC200E9F4F7C4EAF4EF500009D8B46BEF15F05B
:102AD2006DEF15F088EF15F04F06D8A050064F287D
:102AE20006E15028D8A478EF15F07AEF15F035EF0B
:102AF20015F088EF15F00EC503F50FC504F510C5E6
:102B020005F5000E076E200E066E2BEC1BF05150E1
:102B1200156E5250166E514A522A4D50155C4E5047
:102B22001658D8A097EF15F099EF15F07CEF15F035
:102B320029EF13F05550156E166A1650000AD8B4D4
:102B4200A5EF15F047EF13F01550580AD8B4A8EFC7
:102B520014F03A0AD8B496EF14F0010AD8B4AEEFE2
:102B620014F0070AD8B4A2EF14F00B0AD8B49CEF01
:102B720014F01C0AD8B4CDEF14F0060AD8B4A2EFB0
:102B820014F00D0AD8B4A8EF14F047EF13F04BA4D9
:102B9200CDEF15F0CFEF15F0E9EF15F013C5D9F42D
:102BA20014C5DAF4DFC415F5040EDE26DFC416F50B
:102BB200000EDD2215C5D9F416C5DAF4DEC445F5DA
:102BC200DEC446F5DEC447F5DEC448F527EF16F04D
:102BD200640E5518D8B4F0EF15F0F2EF15F00EEFC1
:102BE20016F013C5D9F414C5DAF4DFC415F5020ED4
:102BF200DE26DFC416F5000EDD2215C5D9F416C592
:102C0200DAF4DEC417F5DDC418F517C545F518C5A5
:102C120046F5476A486A27EF16F013C5D9F414C57A
:102C2200DAF4DFC415F5020EDE26DFC416F5000E57
:102C3200DD2215C5D9F416C5DAF4DEC445F5DDC4C6
:102C420046F5000E46BEFF0E476E486E640E5518DE
:102C5200D8A42EEF16F030EF16F041EF16F048BE72
:102C620037EF16F035EF16F041EF16F0456C461EC1
:102C7200D8B0462A471ED8B0472A000E48564B8085
:102C8200000E546E000E536E45C53FF546C540F525
:102C920047C541F548C542F53FC501F540C502F5B6
:102CA20041C503F542C504F53DC505F53EC506F52A
:102CB200076A086A2EEC1CF001503B6E3FC501F515
:102CC20040C502F541C503F542C504F53DC505F50C
:102CD2003EC506F5076A086ADCEC1BF001C53FF544
:102CE20002C540F503C541F504C542F5090E3B6432
:102CF2007DEF16F07FEF16F094EF16F0780E551870
:102D0200D8B486EF16F088EF16F08EEF16F0000EAC
:102D12003A6E070E396E92EF16F0000E3A6E270EDB
:102D2200396E39503B26190E5324D96E050E5420A4
:102D3200DA6E3B50300FDF6E534A542A3F50401038
:102D420041104210D8B4A8EF16F0AAEF16F0B5EF72
:102D520016F0545009E1200E535CD8A0B3EF16F0E0
:102D6200B5EF16F04DEF16F04BA0BAEF16F0BCEF30
:102D720016F0C6EF16F0190E5324D96E050E542024
:102D8200DA6E2D0EDF6E534A542A53C551F554C5DF
:102D920052F5D9EF16F00EC503F50FC504F510C5AF
:102DA20005F53CC506F5076A2BEC1BF0514A522A81
:102DB2004BB2DEEF16F0E0EF16F0EBEF16F04D50EF
:102DC200515C4E505258D8A0E9EF16F0EBEF16F0D6
:102DD200CCEF16F00EC503F50FC504F510C505F5C9
:102DE2005306D8A05406190E5324D96E050E54204A
:102DF200DA6EDF50156E1550066E076A2BEC1BF06B
:102E020053505410D8A408EF17F00AEF17F0EBEF65
:102E120016F018EF17F00EC503F50FC504F510C52F
:102E220005F5000E076E200E066E2BEC1BF05150BE
:102E3200156E5250166E514A522A4D50155C4E5024
:102E42001658D8A027EF17F029EF17F00CEF17F05C
:102E520029EF13F0120004012095CA94C294C2749F
:102E6200C274080E0001B16F04012093C292CA928B
:102E720000910181C6800097BE96C696000E02019F
:102E8200046F000E0501856F000E846FBE76844BC1
:102E9200852B85BF56EF17F0855109E1260E845D1B
:102EA200D8A056EF17F058EF17F047EF17F0000EC3
:102EB2000401106F000EC86E120EC06EC282000EA8
:102EC2000501876F000E866FBE76864B872B87BF04
:102ED20071EF17F08705D8A071EF17F073EF17F0B5
:102EE20065EF17F0680E05017F6FE40EE82EFED73E
:102EF2007F2FFCD700F0C274C274F40E05018B6FF1
:102F02003A0E8C6F000E8D6FDC0E886F3A0E896F51
:102F1200000E8A6F000E0001D56FD69F010ED56F8D
:102F2200D69F020ED56FD69F000E0401186F196945
:102F3200C968000E086F0969C768000E106F116931
:102F4200C8680093C682A8EF17F0BE76BE76CEB2EE
:102F5200ADEF17F0AFEF17F0A6EF17F0C274C2741F
:102F620004010091C6800099BE88C6980095C68467
:102F72000097C696970E436F000E446F040E456F7E
:102F8200000E436F400E446F000E456F000E476FF8
:102F92004691468B468F0201D18F000ED56F8A0E65
:102FA200D46FF00ED117D693D69BD189D18B040161
:102FB200009FC68E070E0201766F0401009DBE8C33
:102FC200C69C260E0201076FD28F4E0E566E260E3B
:102FD200576E28EC1DF0000E0201616F010E626F48
:102FE2001C0E636F1D0E646F1E0E676F1F0E686FDF
:102FF200000E0001D56FD69F020ED86F030ED96F57
:10300200060EDA6F070EDB6F020EDC6F080EDD6F45
:10301200200EDE6F800EDF6F000ED76F820ED66F2E
:10302200020ED56FD69F330ED86F010ED96F7F0E69
:10303200DA6F2A0EDB6F200EDC6F040EDD6F200EBE
:10304200DE6F800EDF6F000ED76F800ED66F010E1F
:10305200D56F350ED86F340ED96F7F0EDA6F7F0EB3
:10306200DB6F020EDC6F040EDD6F200EDE6F200EB2
:10307200DF6F000ED76F840ED66F9CEC1DF037EC1D
:1030820019F09DEC1DF0470E566E260E576E28EC79
:103092001DF0010E0201046FC292C290C868C27490
:1030A200C274C868CEA258EF18F05AEF18F053EF66
:1030B20018F085EC1DF0CEB261EF18F063EF18F056
:1030C2005CEF18F085EC1DF0CEA26AEF18F06CEF01
:1030D20018F065EF18F085EC1DF0CEB273EF18F022
:1030E20075EF18F06EEF18F085EC1DF0CEA27CEFB4
:1030F20018F07EEF18F077EF18F085EC1DF0CEB2E5
:1031020085EF18F087EF18F080EF18F085EC1DF0CE
:10311200CEA28EEF18F090EF18F089EF18F085EC40
:103122001DF0CEB297EF18F099EF18F092EF18F069
:1031320085EC1DF0CEA2A0EF18F0A2EF18F09BEFE5
:1031420018F085EC1DF0CEB2A9EF18F0ABEF18F035
:10315200A4EF18F085EC1DF0CEA2B2EF18F0B4EF98
:1031620018F0ADEF18F085EC1DF0CEB2BBEF18F001
:10317200BDEF18F0B6EF18F085EC1DF0C274C27402
:10318200C274C274000E0501976F010E966FCEA233
:10319200CDEF18F0CFEF18F0C8EF18F085EC1DF066
:1031A200CEB2D6EF18F0D8EF18F0D1EF18F085ECC8
:1031B2001DF099EC1DF0CEA2E1EF18F0E3EF18F04C
:1031C200DCEF18F0CEA0E8EF18F0EAEF18F0FBEF12
:1031D20018F0C2748DEC1DF001C580F502C581F5B1
:1031E2000501826B836B120EC06E000EC86EC27434
:1031F20025EF19F0C274C274C2748DEC1DF001C5C2
:1032020080F502C581F50501826B836BA10E8019E1
:1032120008E1812982118311D8A412EF19F014EF69
:1032220019F01AEF19F0C274D0C4C9F2C274F8EFDF
:1032320018F0C27480C501F581C502F5D0C403F54A
:1032420051EC1DF017EF19F085EC1DF0CEB22CEF0A
:1032520019F02EEF19F027EF19F0C274C86885EC47
:103262001DF0C274DCEF18F0FEEFFFF0000E050156
:103272007C6F000E7B6F000E726F000E716F7369B0
:10328200746944EF19F086EC1BF003C57DF504C5A3
:103292007EF5200E05017D197E11D8B453EF19F089
:1032A20055EF19F044EF19F0090E7D197E11D8B4CB
:1032B2005DEF19F05FEF19F044EF19F00A0E7D1976
:1032C2007E11D8B467EF19F069EF19F044EF19F0E5
:1032D2000D0E7D197E11D8B471EF19F073EF19F04C
:1032E20044EF19F07D2906E17E29D8A47BEF19F07D
:1032F2007DEF19F07FEF19F02AEF1BF0210E7D19F7
:103302007E11D8A487EF19F089EF19F024EF1AF093
:103312007151735D72517459D8B092EF19F094EFF4
:1033220019F024EF1AF0F00E7315796FFF0E741571
:103332007A6F71C56AF572C56BF5F4EF19F00F0E6D
:103342007915686F000E7A15696F68516911D8A4F2
:10335200ADEF19F0AFEF19F0B9EF19F0380E566E64
:10336200260E576E79C558F57AC559F528EC1DF029
:1033720079C501F57AC502F560EC1DF00501766F9D
:10338200756B010E7925016E000E7A21026E60ECDA
:103392001DF00501686F68517513380E566E260EC2
:1033A200576E75C558F576C559F528EC1DF00F0E08
:1033B20005017915686F000E7A15696F0E0E68198E
:1033C2006911D8A4E7EF19F0E9EF19F0EFEF19F05E
:1033D200490E566E260E576E28EC1DF0020E0501A0
:1033E2007927000E7A236A51795D6B517A59D8A0F8
:1033F200FDEF19F0FFEF19F0A0EF19F096519711B8
:10340200D8B406EF1AF008EF1AF00EEF1AF0430ED6
:10341200566E260E576E28EC1DF005019851991133
:10342200D8B416EF1AF018EF1AF044EF19F0360E6E
:10343200566E260E576E98C558F599C559F528EC63
:103442001DF044EF19F0730E7D197E11D8A42CEFF4
:103452001AF02EEF1AF034EF1AF0000E976F010EE9
:10346200966F2AEF1BF0670E7D197E11D8A43CEFF0
:103472001AF03EEF1AF044EF1AF0000E976F000EAA
:10348200966F2AEF1BF02C0E7D197E11D8A44CEFFB
:103492001AF04EEF1AF052EF1AF072EC1CF044EFF1
:1034A20019F0010E6C6F3D0E7D197E11D8B45CEFE0
:1034B2001AF05EEF1AF06AEF1AF0250E7D197E11EE
:1034C200D8B466EF1AF068EF1AF06AEF1AF0000E3D
:1034D2006C6F6CC56FF5706B7DC56DF57EC56EF555
:1034E2006F517011D8A478EF1AF07AEF1AF080EFCA
:1034F2001AF07DC501F57EC502F594EC1DF0000EB3
:103502000501786F000E776F94EF1AF0773B783BE6
:10351200F00E781777510F0B7813F00E771775515D
:1035220077277651782386EC1BF003C57DF504C519
:103532007EF505017D51ACEC1CF001C575F502C5A7
:1035420076F5050176BFAAEF1AF0A8EF1AF087EF19
:103552001AF07EBFB1EF1AF0AFEF1AF0B3EF1AF024
:103562002AEF1BF076BFBAEF1AF0B8EF1AF044EF69
:1035720019F06F517011D8B4C1EF1AF0C3EF1AF0FD
:10358200E3EF1AF03D0E6D196E11D8A4CBEF1AF0CD
:10359200CDEF1AF0D3EF1AF077C57BF578C57CF53D
:1035A20044EF19F0250E6D196E11D8A4DBEF1AF055
:1035B200DDEF1AF044EF19F077C598F578C599F563
:1035C20044EF19F0F00E7C5DD8A0EAEF1AF0ECEFB0
:1035D2001AF044EF19F07BC501F57CC502F578516C
:1035E200036E51EC1DF005017B4B7C2B7BC501F575
:1035F2007CC502F577C503F551EC1DF005017B4B47
:103602007C2B7B51715D7C517259D8B00BEF1BF052
:103612000DEF1BF011EF1BF07BC571F57CC572F548
:10362200FE0E7B25686FFF0E7C21696F7351685D0A
:1036320074516959D8B020EF1BF022EF1BF044EF10
:1036420019F0FE0E7B25736FFF0E7C21746F44EF21
:1036520019F012000A0E06180710D8A433EF1BF057
:1036620035EF1BF046EF1BF0000E026E0D0E016EE1
:1036720002D846EF1BF00500FA6E0350FD6E0450AF
:10368200FE6E0550FF6EFA50120003500410051032
:10369200D8B44EEF1BF050EF1BF063EF1BF006C5E2
:1036A20001F507C502F502D861EF1BF00500FA6EBD
:1036B2000350FD6E0450FE6E0550FF6EFA5012006C
:1036C20085EF1BF0050194519511D8B46BEF1BF0F7
:1036D2006DEF1BF085EF1BF093BF78EF1BF093515A
:1036E20008E19205D8A078EF1BF07AEF1BF085EF86
:1036F2001BF094C5D9F495C5DAF406C5DFF4944BF2
:10370200952B9207D8A0930712000501A5BF8CEF55
:103712001BF08EEF1BF09AEF1BF0A4C507F5A5C5B1
:1037220008F5A469A56907C503F508C504F5DBEF2B
:103732001BF06EEC1DF001C507F502C508F52E0E53
:1037420007180810D8A4A8EF1BF0AAEF1BF0BFEFD0
:103752001BF005019051056E9151066E904B912B15
:1037620006BEBDEF1BF0065009E1020E055CD8A0B3
:10377200BDEF1BF0BFEF1BF09AEF1BF02E0E0718E8
:103782000810D8A4C7EF1BF0C9EF1BF0D2EF1BF053
:10379200000E0501916F000E906F03680468DBEF65
:1037A2001BF0000E0501916F000E906F07C503F527
:1037B20008C504F51200000E096E000E0A6E000E16
:1037C2000B6E000E0C6E0550061007100810D8B4D0
:1037D200EDEF1BF0EFEF1BF025EF1CF0010E0D6E6D
:1037E200F9EF1BF0D89005360636073608360D2A53
:1037F20008AEFEEF1BF000EF1CF0F3EF1BF0D890C9
:1038020009360A360B360C360550015C0650025852
:103812000750035808500458D8A012EF1CF014EFB8
:103822001CF01DEF1CF00550015E0650025A0750B5
:10383200035A0850045A0980D890083207320632D7
:1038420005320D2E00EF1CF009C501F50AC502F57F
:103852000BC503F50CC504F5120005500610071040
:103862000810D8B437EF1CF039EF1CF069EF1CF0E8
:10387200010E096E43EF1CF0D89005360636073666
:103882000836092A08AE48EF1CF04AEF1CF03DEF5B
:103892001CF00550015C06500258075003580850AE
:1038A2000458D8A057EF1CF059EF1CF061EF1CF040
:1038B2000550015E0650025A0750035A0850045A36
:1038C200D8900832073206320532092E4AEF1CF030
:1038D20001C501F502C502F503C503F504C504F5EA
:1038E2001200000E0501676F000E666F000E656F15
:1038F200000E646FFF0E6615626F0F0E6715636F21
:1039020062516311D8A488EF1CF08AEF1CF097EF84
:103912001CF04B0E566E260E576E64C558F565C5E3
:1039220059F528EC1DF00501644B652B66C501F5C0
:1039320067C502F5000E036E51EC1DF00501664BE2
:10394200672B66516711D8A4A9EF1CF0ABEF1CF0EE
:103952007BEF1CF01200036E2F0E0364B3EF1CF01A
:10396200B5EF1CF0C5EF1CF03A0E0360BBEF1CF084
:10397200BDEF1CF0C5EF1CF0D00E0324016E026AED
:10398200FF0E0222E0EF1CF0039A400E0364CCEF1C
:103992001CF0CEEF1CF0DEEF1CF0470E0360D4EFFC
:1039A2001CF0D6EF1CF0DEEF1CF0C90E0324016EF2
:1039B200026AFF0E0222E0EF1CF0016802681200A8
:1039C20001C503F502C504F5E9EF1CF0014A022A1C
:1039D20001C5F6F402C5F7F4000EF86E250EF76481
:1039E20003D00800F55005D0F6C4E9F4F7C4EAF4B0
:1039F200EF500009D8A400EF1DF002EF1DF0E7EF31
:103A02001CF00350015C016E04500258026E120059
:103A1200360EF66E3B0EF76E000EF86E0900F5C418
:103A2200A4F50900F5C4A5F505EE00F114EE00F0C9
:103A3200EE6AE550E150FCE1E250FAE101EE88F174
:103A42001C0EEE6AE806FDE100012CEF17F0580E9D
:103A52000501606F050E616F8BC50EF58CC50FF504
:103A62008DC510F556C511F557C512F5600E136ECA
:103A7200050E146E29EC13F0120001500302F3C478
:103A820005F5F4C406F501500402F350062602506F
:103A92000302F350062605C501F506C502F512001C
:103AA200FF0E0114046E0F0E0214056E000E0424A4
:103AB200D96E150E0520DA6E03C5DFF41200FF0E73
:103AC2000114036E0F0E0214046E000E0324D96E4D
:103AD200150E0420DA6EDF5012000201D6B374EF25
:103AE2001DF076EF1DF06EEF1DF0C7C201F5026A00
:103AF20012000201D6AB80EF1DF082EF1DF07AEFCB
:103B02001DF001C5C9F21200020E0001D56FD69F49
:103B12000C0EDE1BD68F1200D150036ECF50016EF9
:103B220003C502F5120001C5A4F502C5A5F51200F0
:0A3B3200C2821200FFFF1200120011
:020000040001F9
:04FFFC0009EF1DF0FC
:020000040020DA
:10000000FFFFFFFFFFFFFFFFFFFFFFFFFFFFFFFF00
:10001000FFFFFFFFFFFFFFFFFFFFFFFFFFFFFFFFF0
:10002000FFFFFFFFFFFFFFFFFFFFFFFFFFFFFFFFE0
:10003000FFFFFFFFFFFFFFFFFFFFFFFFFFFFFFFFD0
:020000040030CA
:080000008CFFFFF79FFFFFFFDB
:01000900FFF7
:00000001FF
